{
  "contractName": "KeyTheft",
  "abi": [
    {
      "inputs": [],
      "stateMutability": "nonpayable",
      "type": "constructor"
    },
    {
      "stateMutability": "payable",
      "type": "receive"
    },
    {
      "inputs": [
        {
          "internalType": "uint256",
          "name": "_a",
          "type": "uint256"
        },
        {
          "internalType": "uint256",
          "name": "_b",
          "type": "uint256"
        },
        {
          "internalType": "uint256",
          "name": "_m",
          "type": "uint256"
        }
      ],
      "name": "modExp",
      "outputs": [
        {
          "internalType": "uint256",
          "name": "result",
          "type": "uint256"
        }
      ],
      "stateMutability": "nonpayable",
      "type": "function"
    },
    {
      "inputs": [
        {
          "internalType": "uint256",
          "name": "modifiedReward",
          "type": "uint256"
        }
      ],
      "name": "changeReward",
      "outputs": [],
      "stateMutability": "nonpayable",
      "type": "function"
    },
    {
      "inputs": [
        {
          "internalType": "uint256",
          "name": "_reward",
          "type": "uint256"
        },
        {
          "internalType": "uint256",
          "name": "_yC",
          "type": "uint256"
        },
        {
          "internalType": "uint256",
          "name": "_pkV",
          "type": "uint256"
        }
      ],
      "name": "initTheft",
      "outputs": [],
      "stateMutability": "payable",
      "type": "function"
    },
    {
      "inputs": [
        {
          "internalType": "uint256",
          "name": "r",
          "type": "uint256"
        },
        {
          "internalType": "uint256",
          "name": "w",
          "type": "uint256"
        },
        {
          "internalType": "uint256",
          "name": "commit",
          "type": "uint256"
        },
        {
          "internalType": "uint256",
          "name": "response",
          "type": "uint256"
        }
      ],
      "name": "claimSecretKey",
      "outputs": [],
      "stateMutability": "nonpayable",
      "type": "function"
    },
    {
      "inputs": [],
      "name": "getState",
      "outputs": [
        {
          "internalType": "string",
          "name": "",
          "type": "string"
        }
      ],
      "stateMutability": "view",
      "type": "function"
    }
  ],
  "bytecode": "0x60806040523480156200001157600080fd5b50336000806101000a81548173ffffffffffffffffffffffffffffffffffffffff021916908373ffffffffffffffffffffffffffffffffffffffff1602179055506202fd5b6001819055506101376002819055506189026003819055506040518060400160405280600781526020017f77616974696e670000000000000000000000000000000000000000000000000081525060079080519060200190620000bb929190620000c2565b50620001d7565b828054620000d090620001a1565b90600052602060002090601f016020900481019282620000f4576000855562000140565b82601f106200010f57805160ff191683800117855562000140565b8280016001018555821562000140579182015b828111156200013f57825182559160200191906001019062000122565b5b5090506200014f919062000153565b5090565b5b808211156200016e57600081600090555060010162000154565b5090565b7f4e487b7100000000000000000000000000000000000000000000000000000000600052602260045260246000fd5b60006002820490506001821680620001ba57607f821691505b60208210811415620001d157620001d062000172565b5b50919050565b610d8480620001e76000396000f3fe60806040526004361061004e5760003560e01c80631063a7891461005a5780631865c57d146100765780633148f14f146100a1578063a3940b07146100de578063cf5d57db1461010757610055565b3661005557005b600080fd5b610074600480360381019061006f91906107ad565b610130565b005b34801561008257600080fd5b5061008b610277565b6040516100989190610899565b60405180910390f35b3480156100ad57600080fd5b506100c860048036038101906100c391906107ad565b610309565b6040516100d591906108ca565b60405180910390f35b3480156100ea57600080fd5b50610105600480360381019061010091906108e5565b6103f0565b005b34801561011357600080fd5b5061012e6004803603810190610129919061094c565b61051e565b005b60008054906101000a900473ffffffffffffffffffffffffffffffffffffffff1673ffffffffffffffffffffffffffffffffffffffff163373ffffffffffffffffffffffffffffffffffffffff16146101be576040517f08c379a00000000000000000000000000000000000000000000000000000000081526004016101b5906109c5565b60405180910390fd5b8234146101ca57600080fd5b3073ffffffffffffffffffffffffffffffffffffffff166108fc349081150290604051600060405180830381858888f19350505050158015610210573d6000803e3d6000fd5b506040518060400160405280600481526020017f696e6974000000000000000000000000000000000000000000000000000000008152506007908051906020019061025c9291906106cf565b50826004819055508160058190555080600681905550505050565b60606007805461028690610a14565b80601f01602080910402602001604051908101604052809291908181526020018280546102b290610a14565b80156102ff5780601f106102d4576101008083540402835291602001916102ff565b820191906000526020600020905b8154815290600101906020018083116102e257829003601f168201915b5050505050905090565b60008083141561031c57600190506103e9565b60018314156103385781846103319190610a75565b90506103e9565b60006002846103479190610a75565b141561039d576000610366856002866103609190610ad5565b85610309565b90508283826103759190610a75565b84836103819190610a75565b61038b9190610b06565b6103959190610a75565b9150506103e9565b60006103b6856001866103b09190610b60565b85610309565b90508283866103c59190610a75565b84836103d19190610a75565b6103db9190610b06565b6103e59190610a75565b9150505b9392505050565b6040516020016103ff90610beb565b6040516020818303038152906040528051906020012060076040516020016104279190610c94565b604051602081830303815290604052805190602001201461044757600080fd5b600061045385856105b6565b9050600061046360035484610619565b90506000610472838688610635565b905080821461048057600080fd5b3373ffffffffffffffffffffffffffffffffffffffff166108fc6004549081150290604051600060405180830381858888f193505050501580156104c8573d6000803e3d6000fd5b506040518060400160405280600481526020017f646f6e6500000000000000000000000000000000000000000000000000000000815250600790805190602001906105149291906106cf565b5050505050505050565b60008054906101000a900473ffffffffffffffffffffffffffffffffffffffff1673ffffffffffffffffffffffffffffffffffffffff163373ffffffffffffffffffffffffffffffffffffffff16146105ac576040517f08c379a00000000000000000000000000000000000000000000000000000000081526004016105a3906109c5565b60405180910390fd5b8060048190555050565b6000806105c860035484600154610309565b905060006105db60055486600154610309565b9050600082826040516020016105f2929190610ccc565b6040516020818303038152906040528051906020012060001c905080935050505092915050565b6000806106298484600154610309565b90508091505092915050565b600080600154600154856106499190610a75565b600154876106579190610a75565b6106619190610cf8565b61066b9190610a75565b9050600061068960065485846106819190610cf8565b600154610309565b9050600060015460015483600154896106a29190610a75565b6106ac9190610b06565b6106b69190610a75565b6106c09190610a75565b90508093505050509392505050565b8280546106db90610a14565b90600052602060002090601f0160209004810192826106fd5760008555610744565b82601f1061071657805160ff1916838001178555610744565b82800160010185558215610744579182015b82811115610743578251825591602001919060010190610728565b5b5090506107519190610755565b5090565b5b8082111561076e576000816000905550600101610756565b5090565b600080fd5b6000819050919050565b61078a81610777565b811461079557600080fd5b50565b6000813590506107a781610781565b92915050565b6000806000606084860312156107c6576107c5610772565b5b60006107d486828701610798565b93505060206107e586828701610798565b92505060406107f686828701610798565b9150509250925092565b600081519050919050565b600082825260208201905092915050565b60005b8381101561083a57808201518184015260208101905061081f565b83811115610849576000848401525b50505050565b6000601f19601f8301169050919050565b600061086b82610800565b610875818561080b565b935061088581856020860161081c565b61088e8161084f565b840191505092915050565b600060208201905081810360008301526108b38184610860565b905092915050565b6108c481610777565b82525050565b60006020820190506108df60008301846108bb565b92915050565b600080600080608085870312156108ff576108fe610772565b5b600061090d87828801610798565b945050602061091e87828801610798565b935050604061092f87828801610798565b925050606061094087828801610798565b91505092959194509250565b60006020828403121561096257610961610772565b5b600061097084828501610798565b91505092915050565b7f4f6e6c79206f776e65722063616e2063616c6c20746869732e00000000000000600082015250565b60006109af60198361080b565b91506109ba82610979565b602082019050919050565b600060208201905081810360008301526109de816109a2565b9050919050565b7f4e487b7100000000000000000000000000000000000000000000000000000000600052602260045260246000fd5b60006002820490506001821680610a2c57607f821691505b60208210811415610a4057610a3f6109e5565b5b50919050565b7f4e487b7100000000000000000000000000000000000000000000000000000000600052601260045260246000fd5b6000610a8082610777565b9150610a8b83610777565b925082610a9b57610a9a610a46565b5b828206905092915050565b7f4e487b7100000000000000000000000000000000000000000000000000000000600052601160045260246000fd5b6000610ae082610777565b9150610aeb83610777565b925082610afb57610afa610a46565b5b828204905092915050565b6000610b1182610777565b9150610b1c83610777565b9250817fffffffffffffffffffffffffffffffffffffffffffffffffffffffffffffffff0483118215151615610b5557610b54610aa6565b5b828202905092915050565b6000610b6b82610777565b9150610b7683610777565b925082821015610b8957610b88610aa6565b5b828203905092915050565b600081905092915050565b7f696e697400000000000000000000000000000000000000000000000000000000600082015250565b6000610bd5600483610b94565b9150610be082610b9f565b600482019050919050565b6000610bf682610bc8565b9150819050919050565b60008190508160005260206000209050919050565b60008154610c2281610a14565b610c2c8186610b94565b94506001821660008114610c475760018114610c5857610c8b565b60ff19831686528186019350610c8b565b610c6185610c00565b60005b83811015610c8357815481890152600182019150602081019050610c64565b838801955050505b50505092915050565b6000610ca08284610c15565b915081905092915050565b6000819050919050565b610cc6610cc182610777565b610cab565b82525050565b6000610cd88285610cb5565b602082019150610ce88284610cb5565b6020820191508190509392505050565b6000610d0382610777565b9150610d0e83610777565b9250827fffffffffffffffffffffffffffffffffffffffffffffffffffffffffffffffff03821115610d4357610d42610aa6565b5b82820190509291505056fea2646970667358221220c1e10e099fceb99c219ceeee05e4154b80f1b5d9753fbe9ed39d1d394d53111c64736f6c634300080a0033",
  "immutableReferences": {},
  "source": "pragma solidity ^0.8.10;\n\ncontract KeyTheft{\n    \n    address owner;\n    bool keyTheftComplete;\n    uint p_schnorr;\n    uint q_schnorr;\n    uint generator;\n    uint reward;\n    uint yC;\n    uint pkV;\n    string state;\n    \n    constructor() public{\n        owner = msg.sender;\n        p_schnorr = 195931;\n        q_schnorr = 311;\n        generator = 35074;\n        state = \"waiting\";\n    }\n    \n    //Function to allow payment to contract\n    receive() external payable { }\n    \n    //modifier for allowing calling of certainf functions only by owner\n    modifier checkOwner() { // Modifier\n        require(\n            msg.sender == owner,\n            \"Only owner can call this.\"\n        );\n        _;\n    }\n    \n    //Function for fast modular exponentitation\n    function modExp(uint256 _a, uint256 _b, uint256 _m) public returns (uint256 result) {\n        if(_b == 0){\n            return 1;\n        }\n        else if(_b == 1){\n          return _a%_m;  \n        }\n        else{\n            if(_b%2 == 0){\n                uint256 val1 = modExp(_a, _b/2, _m);\n                return ((val1%_m)*(val1%_m))%_m;\n            }else{\n                uint256 val2 = modExp(_a, _b - 1, _m);\n                return ((val2%_m)*(_a%_m))%_m;\n            }\n        }\n    }\n    \n    //Function allowing owner to modify rewards with time\n    function changeReward(uint modifiedReward) public checkOwner(){\n        reward = modifiedReward;\n    }\n    \n    //Function fot the owner to init the theft\n    function initTheft(uint _reward, uint _yC, uint _pkV) payable checkOwner() public {\n        require(msg.value == _reward);\n        payable(address(this)).transfer(msg.value);\n        state = \"init\";\n        reward = _reward;\n        yC = _yC;\n        pkV = _pkV;\n        \n    }\n    \n\n    function calculateTrapdoor(uint r, uint w) private returns (uint256){\n        //Calculate the parts of the trapdoor function\n        uint256 trapdoor1 = modExp(generator, w, p_schnorr);\n        uint256 trapdoor2 = modExp(yC, r, p_schnorr);\n\n        //Calculate hashvalue from parts\n        uint256 hashValue = uint256(keccak256(abi.encodePacked(trapdoor1, trapdoor2)));\n        return hashValue;\n    }\n    \n    function calculateResponseElement(uint generator, uint response) private returns (uint256){\n        uint256 responseElement = modExp(generator, response, p_schnorr);\n        return responseElement;\n    }\n    \n    function calculateChallengeElement(uint trapDoorValue, uint commit, uint w) private returns (uint256){\n        uint256 challenge = (trapDoorValue%p_schnorr + commit%p_schnorr)%p_schnorr;\n        uint256 challengeExponentiation = modExp(pkV, challenge + w, p_schnorr);\n        uint256 challengeElement = (commit%p_schnorr*challengeExponentiation%p_schnorr)%p_schnorr;\n        return challengeElement;\n    }\n\n    function claimSecretKey(uint r, uint w, uint commit, uint response) public{\n        \n        //Check for initialisation of challenge\n        require(keccak256(abi.encodePacked(state)) == keccak256(abi.encodePacked(\"init\")));\n        //Compute trapdoor value\n        uint256 trapDoorValue = calculateTrapdoor(r, w);\n        \n        //Compute response elemente which is g^reponse\n        uint256 responseElement = calculateResponseElement(generator, response);\n        \n        //Compute challengeElement which is commit*yV^(w + challenge)\n        uint256 challengeElement = calculateChallengeElement(trapDoorValue, commit, w);\n        \n        require(responseElement == challengeElement);\n        payable(msg.sender).transfer(reward);\n        state = \"done\";\n    }\n\n    //Function to get the current state of the contract\n    function getState() public view returns(string memory){\n        return state;\n    }\n}",
  "sourcePath": "/home/pranav/Desktop/SolidityProject/CriminalSmartContractsBackend/contracts/keyTheft.sol",
  "compiler": {
    "name": "solc",
    "version": "0.8.10+commit.fc410830.Emscripten.clang"
  },
  "schemaVersion": "3.4.3",
  "updatedAt": "2021-11-27T12:28:08.896Z",
  "devdoc": {
    "kind": "dev",
    "methods": {},
    "version": 1
  },
  "userdoc": {
    "kind": "user",
    "methods": {},
    "version": 1
  }
}