{
  "contractName": "LeakageOfSecret",
  "abi": [
    {
      "inputs": [],
      "stateMutability": "nonpayable",
      "type": "constructor"
    },
    {
      "stateMutability": "payable",
      "type": "receive"
    },
    {
      "inputs": [],
      "name": "init",
      "outputs": [],
      "stateMutability": "nonpayable",
      "type": "function"
    },
    {
      "inputs": [
        {
          "internalType": "uint256[]",
          "name": "_keyHashes",
          "type": "uint256[]"
        },
        {
          "internalType": "uint256",
          "name": "_noEle",
          "type": "uint256"
        },
        {
          "internalType": "uint256",
          "name": "_revealedEle",
          "type": "uint256"
        },
        {
          "internalType": "uint256",
          "name": "_minRequiredDonations",
          "type": "uint256"
        },
        {
          "internalType": "uint256",
          "name": "_t_end",
          "type": "uint256"
        }
      ],
      "name": "commit",
      "outputs": [],
      "stateMutability": "nonpayable",
      "type": "function"
    },
    {
      "inputs": [],
      "name": "setTendAsCurrentTime",
      "outputs": [],
      "stateMutability": "nonpayable",
      "type": "function"
    },
    {
      "inputs": [],
      "name": "testEncodeing",
      "outputs": [],
      "stateMutability": "nonpayable",
      "type": "function"
    },
    {
      "inputs": [
        {
          "internalType": "uint256[]",
          "name": "sampleKeys",
          "type": "uint256[]"
        }
      ],
      "name": "revealSample",
      "outputs": [],
      "stateMutability": "nonpayable",
      "type": "function"
    },
    {
      "inputs": [],
      "name": "donate",
      "outputs": [],
      "stateMutability": "payable",
      "type": "function"
    },
    {
      "inputs": [
        {
          "internalType": "uint256[]",
          "name": "keys",
          "type": "uint256[]"
        }
      ],
      "name": "revealRemaining",
      "outputs": [],
      "stateMutability": "payable",
      "type": "function"
    },
    {
      "inputs": [
        {
          "internalType": "uint256",
          "name": "_amountToWithdraw",
          "type": "uint256"
        }
      ],
      "name": "withdraw",
      "outputs": [],
      "stateMutability": "nonpayable",
      "type": "function"
    },
    {
      "inputs": [],
      "name": "getState",
      "outputs": [
        {
          "internalType": "string",
          "name": "",
          "type": "string"
        }
      ],
      "stateMutability": "view",
      "type": "function"
    }
  ],
  "bytecode": "0x608060405234801561001057600080fd5b50336000806101000a81548173ffffffffffffffffffffffffffffffffffffffff021916908373ffffffffffffffffffffffffffffffffffffffff1602179055506113b2806100606000396000f3fe60806040526004361061008a5760003560e01c80636379fc70116100595780636379fc701461012f578063c0809a9214610146578063e1c7392a1461016f578063ed88c68e14610186578063eda58ecc1461019057610091565b80631865c57d146100965780632e1a7d4d146100c157806347bc4352146100ea5780634da208c51461010657610091565b3661009157005b600080fd5b3480156100a257600080fd5b506100ab6101a7565b6040516100b89190610db4565b60405180910390f35b3480156100cd57600080fd5b506100e860048036038101906100e39190610e20565b610239565b005b61010460048036038101906100ff9190610f95565b6103f4565b005b34801561011257600080fd5b5061012d60048036038101906101289190610f95565b61060c565b005b34801561013b57600080fd5b506101446107ef565b005b34801561015257600080fd5b5061016d60048036038101906101689190610fde565b61082f565b005b34801561017b57600080fd5b506101846109a0565b005b61018e610a2f565b005b34801561019c57600080fd5b506101a5610b92565b005b6060600280546101b6906110a4565b80601f01602080910402602001604051908101604052809291908181526020018280546101e2906110a4565b801561022f5780601f106102045761010080835404028352916020019161022f565b820191906000526020600020905b81548152906001019060200180831161021257829003601f168201915b5050505050905090565b600854421161024757600080fd5b80600960003373ffffffffffffffffffffffffffffffffffffffff1673ffffffffffffffffffffffffffffffffffffffff16815260200190815260200160002054101561029357600080fd5b7fa50e50e7c7f0c1adf8e5703f4a562600a571122b56dac8bad930a2bc1bf43a2860026040516020016102c69190611175565b60405160208183030381529060405280519060200120146102e657600080fd5b60003373ffffffffffffffffffffffffffffffffffffffff166108fc6006549081150290604051600060405180830381858888f19350505050905080156103f05781600960003373ffffffffffffffffffffffffffffffffffffffff1673ffffffffffffffffffffffffffffffffffffffff168152602001908152602001600020600082825461037691906111bb565b92505081905550816006600082825461038f91906111bb565b9250508190555060075460065410156103ef576040518060400160405280600e81526020017f73616d706c6552657665616c6564000000000000000000000000000000000000815250600290805190602001906103ed929190610c2b565b505b5b5050565b600160009054906101000a900473ffffffffffffffffffffffffffffffffffffffff1673ffffffffffffffffffffffffffffffffffffffff163373ffffffffffffffffffffffffffffffffffffffff1614610484576040517f08c379a000000000000000000000000000000000000000000000000000000000815260040161047b9061123b565b60405180910390fd5b60045481511461049357600080fd5b7fa50e50e7c7f0c1adf8e5703f4a562600a571122b56dac8bad930a2bc1bf43a2860026040516020016104c69190611175565b60405160208183030381529060405280519060200120146104e657600080fd5b60005b815181101561057357600381815481106105065761050561125b565b5b90600052602060002001548282815181106105245761052361125b565b5b602002602001015160405160200161053c91906112ab565b6040516020818303038152906040528051906020012060001c1461055f57600080fd5b60018161056c91906112c6565b90506104e9565b503373ffffffffffffffffffffffffffffffffffffffff166108fc6006549081150290604051600060405180830381858888f193505050501580156105bc573d6000803e3d6000fd5b506040518060400160405280600481526020017f646f6e650000000000000000000000000000000000000000000000000000000081525060029080519060200190610608929190610c2b565b5050565b600160009054906101000a900473ffffffffffffffffffffffffffffffffffffffff1673ffffffffffffffffffffffffffffffffffffffff163373ffffffffffffffffffffffffffffffffffffffff161461069c576040517f08c379a00000000000000000000000000000000000000000000000000000000081526004016106939061123b565b60405180910390fd5b7fa97dd2cbe677d6dda22dd4a01edec54ba307cd2b1f7d130707ba5a29cc019c1d60026040516020016106cf9190611175565b60405160208183030381529060405280519060200120146106ef57600080fd5b6005548151146106fe57600080fd5b6000600554600454610710919061134b565b905060005b825181101561079e57600381815481106107325761073161125b565b5b90600052602060002001548382815181106107505761074f61125b565b5b602002602001015160405160200161076891906112ab565b6040516020818303038152906040528051906020012060001c1461078b57600080fd5b818161079791906112c6565b9050610715565b6040518060400160405280600e81526020017f73616d706c6552657665616c6564000000000000000000000000000000000000815250600290805190602001906107e9929190610c2b565b50505050565b600061c5e5905060008160405160200161080991906112ab565b6040516020818303038152906040528051906020012060001c9050806004819055505050565b600160009054906101000a900473ffffffffffffffffffffffffffffffffffffffff1673ffffffffffffffffffffffffffffffffffffffff163373ffffffffffffffffffffffffffffffffffffffff16146108bf576040517f08c379a00000000000000000000000000000000000000000000000000000000081526004016108b69061123b565b60405180910390fd5b7f97b6771b04b068edcfb8c265b21ed5c6a5748d427138f776f3f164cc45f75b3160026040516020016108f29190611175565b604051602081830303815290604052805190602001201461091257600080fd5b6040518060400160405280600681526020017f636f6d6d697400000000000000000000000000000000000000000000000000008152506002908051906020019061095d929190610c2b565b508460039080519060200190610974929190610cb1565b508360048190555082600581905550816007819055506000600681905550806008819055505050505050565b6040518060400160405280600481526020017f696e697400000000000000000000000000000000000000000000000000000000815250600290805190602001906109eb929190610c2b565b5033600160006101000a81548173ffffffffffffffffffffffffffffffffffffffff021916908373ffffffffffffffffffffffffffffffffffffffff160217905550565b7f84d792e3eda03dfa5e95e4b150dc3cd1cc83d7832e30efb5e21a10fbe2850af46002604051602001610a629190611175565b6040516020818303038152906040528051906020012014610a8257600080fd5b3073ffffffffffffffffffffffffffffffffffffffff166108fc349081150290604051600060405180830381858888f19350505050158015610ac8573d6000803e3d6000fd5b503460066000828254610adb91906112c6565b9250508190555034600960003373ffffffffffffffffffffffffffffffffffffffff1673ffffffffffffffffffffffffffffffffffffffff1681526020019081526020016000206000828254610b3191906112c6565b9250508190555060075460065410610b90576040518060400160405280600e81526020017f7265616479466f7252657665616c00000000000000000000000000000000000081525060029080519060200190610b8e929190610c2b565b505b565b600160009054906101000a900473ffffffffffffffffffffffffffffffffffffffff1673ffffffffffffffffffffffffffffffffffffffff163373ffffffffffffffffffffffffffffffffffffffff1614610c22576040517f08c379a0000000000000000000000000000000000000000000000000000000008152600401610c199061123b565b60405180910390fd5b42600881905550565b828054610c37906110a4565b90600052602060002090601f016020900481019282610c595760008555610ca0565b82601f10610c7257805160ff1916838001178555610ca0565b82800160010185558215610ca0579182015b82811115610c9f578251825591602001919060010190610c84565b5b509050610cad9190610cfe565b5090565b828054828255906000526020600020908101928215610ced579160200282015b82811115610cec578251825591602001919060010190610cd1565b5b509050610cfa9190610cfe565b5090565b5b80821115610d17576000816000905550600101610cff565b5090565b600081519050919050565b600082825260208201905092915050565b60005b83811015610d55578082015181840152602081019050610d3a565b83811115610d64576000848401525b50505050565b6000601f19601f8301169050919050565b6000610d8682610d1b565b610d908185610d26565b9350610da0818560208601610d37565b610da981610d6a565b840191505092915050565b60006020820190508181036000830152610dce8184610d7b565b905092915050565b6000604051905090565b600080fd5b600080fd5b6000819050919050565b610dfd81610dea565b8114610e0857600080fd5b50565b600081359050610e1a81610df4565b92915050565b600060208284031215610e3657610e35610de0565b5b6000610e4484828501610e0b565b91505092915050565b600080fd5b7f4e487b7100000000000000000000000000000000000000000000000000000000600052604160045260246000fd5b610e8a82610d6a565b810181811067ffffffffffffffff82111715610ea957610ea8610e52565b5b80604052505050565b6000610ebc610dd6565b9050610ec88282610e81565b919050565b600067ffffffffffffffff821115610ee857610ee7610e52565b5b602082029050602081019050919050565b600080fd5b6000610f11610f0c84610ecd565b610eb2565b90508083825260208201905060208402830185811115610f3457610f33610ef9565b5b835b81811015610f5d5780610f498882610e0b565b845260208401935050602081019050610f36565b5050509392505050565b600082601f830112610f7c57610f7b610e4d565b5b8135610f8c848260208601610efe565b91505092915050565b600060208284031215610fab57610faa610de0565b5b600082013567ffffffffffffffff811115610fc957610fc8610de5565b5b610fd584828501610f67565b91505092915050565b600080600080600060a08688031215610ffa57610ff9610de0565b5b600086013567ffffffffffffffff81111561101857611017610de5565b5b61102488828901610f67565b955050602061103588828901610e0b565b945050604061104688828901610e0b565b935050606061105788828901610e0b565b925050608061106888828901610e0b565b9150509295509295909350565b7f4e487b7100000000000000000000000000000000000000000000000000000000600052602260045260246000fd5b600060028204905060018216806110bc57607f821691505b602082108114156110d0576110cf611075565b5b50919050565b600081905092915050565b60008190508160005260206000209050919050565b60008154611103816110a4565b61110d81866110d6565b9450600182166000811461112857600181146111395761116c565b60ff1983168652818601935061116c565b611142856110e1565b60005b8381101561116457815481890152600182019150602081019050611145565b838801955050505b50505092915050565b600061118182846110f6565b915081905092915050565b7f4e487b7100000000000000000000000000000000000000000000000000000000600052601160045260246000fd5b60006111c682610dea565b91506111d183610dea565b9250828210156111e4576111e361118c565b5b828203905092915050565b7f4f6e6c79206c65616b65722063616e2063616c6c20746869732e000000000000600082015250565b6000611225601a83610d26565b9150611230826111ef565b602082019050919050565b6000602082019050818103600083015261125481611218565b9050919050565b7f4e487b7100000000000000000000000000000000000000000000000000000000600052603260045260246000fd5b6000819050919050565b6112a56112a082610dea565b61128a565b82525050565b60006112b78284611294565b60208201915081905092915050565b60006112d182610dea565b91506112dc83610dea565b9250827fffffffffffffffffffffffffffffffffffffffffffffffffffffffffffffffff038211156113115761131061118c565b5b828201905092915050565b7f4e487b7100000000000000000000000000000000000000000000000000000000600052601260045260246000fd5b600061135682610dea565b915061136183610dea565b9250826113715761137061131c565b5b82820490509291505056fea26469706673582212206cd08a727f1419f994248c1465f881b2da1ebe1f89244258b808228690f994a164736f6c634300080a0033",
  "immutableReferences": {},
  "source": "pragma solidity ^0.8.10;\n\ncontract LeakageOfSecret{\n    \n    address owner;\n    address leaker_address;\n    string state;\n    uint[] key_hashes;\n    uint noEle;\n    uint revealedEle;\n    uint donationsReceived;\n    uint minRequiredDonations;\n    uint256 t_end;\n    \n    receive() external payable { }\n    \n    //Have count of how much each user has donated\n    mapping(address => uint) userDonations;\n    \n    constructor() public{\n        owner = msg.sender;\n        \n    }\n    \n    \n    //modifier for allowing calling of certainf functions only by owner\n    modifier checkOwner() { // Modifier\n        require(\n            msg.sender == owner,\n            \"Only owner can call this.\"\n        );\n        _;\n    }\n    \n     //modifier for allowing calling of certain functions only by leaker\n    modifier checkLeaker() { // Modifier\n        require(\n            msg.sender == leaker_address,\n            \"Only leaker can call this.\"\n        );\n        _;\n    }\n    \n    function init() public{\n        state = \"init\";\n        leaker_address = msg.sender;\n    }\n    \n    function commit(uint256[] memory _keyHashes, uint _noEle, uint _revealedEle, uint _minRequiredDonations, uint256 _t_end) public checkLeaker(){\n        \n        //Ensure state is correct\n        require(keccak256(abi.encodePacked(state)) == keccak256(\"init\"));\n        \n        state = \"commit\";\n        key_hashes = _keyHashes;\n        noEle = _noEle;\n        revealedEle = _revealedEle;\n        minRequiredDonations = _minRequiredDonations;\n        donationsReceived = 0;\n        t_end = _t_end;\n    }\n\n    //For Testing purposes\n    function setTendAsCurrentTime() public checkLeaker(){\n        t_end = block.timestamp;\n    }\n\n    function testEncodeing() public{\n        uint256 no = 50661;\n        uint256 enc = uint(keccak256(abi.encodePacked(no)));\n        noEle = enc;\n    }\n    \n    function revealSample(uint[] memory sampleKeys) public checkLeaker(){\n        \n         //Ensure state is correct\n        require(keccak256(abi.encodePacked(state)) == keccak256(\"commit\"));\n        \n        //Ensure that sample keys are supplied for all the required keys\n        require(sampleKeys.length == revealedEle);\n        \n        //The sample keys are spaced among the keys\n        uint ratio = noEle/revealedEle;\n        uint i = 0;\n        \n        for(i = 0;i < sampleKeys.length;i+=ratio){\n            require(uint(keccak256(abi.encodePacked(sampleKeys[i]))) == key_hashes[i]);\n        }\n        \n        //Set state\n        state = \"sampleRevealed\";\n        \n    }\n    \n    function donate() public payable{\n        \n       //Ensure state is correct\n      require(keccak256(abi.encodePacked(state)) == keccak256(\"sampleRevealed\"));\n        \n      //Transfer ether to contract\n      payable(address(this)).transfer(msg.value);\n      \n      //Update total received donation\n      donationsReceived += msg.value;\n\n      //Update the users donations\n      userDonations[msg.sender] += msg.value;\n      \n      if(donationsReceived >= minRequiredDonations){\n          state = \"readyForReveal\";\n      }\n\n    }\n    \n    function revealRemaining(uint[] memory keys)  payable public checkLeaker(){\n        //Ensure all keys are supplied\n        require(keys.length == noEle);\n        \n        //Ensure state is correct\n        require(keccak256(abi.encodePacked(state)) == keccak256(\"readyForReveal\"));\n        \n        for(uint i = 0;i < keys.length;i+=1){\n            require(uint(keccak256(abi.encodePacked(keys[i]))) == key_hashes[i]);\n        }\n        \n        //Transfer donations to leaker\n        payable(msg.sender).transfer(donationsReceived);\n        state = \"done\";\n    }\n    \n    function withdraw(uint256 _amountToWithdraw) public{\n      \n        require(block.timestamp > t_end);\n        require(userDonations[msg.sender] >= _amountToWithdraw);\n\n        //Allow withdraw only if keys have not been revealed\n        require(keccak256(abi.encodePacked(state)) == keccak256(\"readyForReveal\"));\n\n         //Transfer donations to donator\n        bool transfered = payable(msg.sender).send(donationsReceived);\n        \n        //Update user map only if transfered\n        if(transfered){\n            userDonations[msg.sender] -= _amountToWithdraw;\n            donationsReceived -= _amountToWithdraw;\n\n            //Update state of contract if required\n            if(donationsReceived < minRequiredDonations){\n                state = \"sampleRevealed\";\n            }\n\n        }   \n    }\n    function getState() public view returns(string memory){\n        return state;\n    }\n}",
  "sourcePath": "/home/pranav/Desktop/SolidityProject/CriminalSmartContractsBackend/contracts/leakageOfSecret.sol",
  "compiler": {
    "name": "solc",
    "version": "0.8.10+commit.fc410830.Emscripten.clang"
  },
  "schemaVersion": "3.4.3",
  "updatedAt": "2021-11-27T12:28:08.949Z",
  "devdoc": {
    "kind": "dev",
    "methods": {},
    "version": 1
  },
  "userdoc": {
    "kind": "user",
    "methods": {},
    "version": 1
  }
}